:02000002D0002C
:1040000000400D00908A0D00000006000C00050124
:08401000040129050000000075
:0440180054810D00C2
:1040200009480A49884208B505D0094A824202D0A7
:10403000121A04F02FF80748074A0021121A04F058
:1040400034F8014808BD00BF5CE10320F8890D0089
:10405000CCE10320CCE10320F0E7032070B502F0AF
:10406000F7FE074C074BE41AA40800251E46A5429C
:1040700004D056F8253098470135F8E770BD00BFE9
:10408000EC890D0094890D0000F046B808B500F0E9
:1040900047F9BDE8084002F0A9BE01F013BB01F0EA
:1040A00019BB01F017BB0078B0FA80F040097047E7
:1040B00001230370704710B5036804469B68984756
:1040C000A368013BA3602BB923682046DB68BDE8E9
:1040D0001040184710BD000010B5064B03600446A1
:1040E000806928B14368013B43600BB9FFF7E3FFE8
:1040F000204610BD1C880D0010B50446FFF7ECFFEC
:10410000204610BD10B50446FFF7E6FF20461C21EF
:1041100002F079FF204610BD08B502F0E5FD4FF42E
:10412000165102F0D5FD41F2883001F003FB002169
:10413000212002F0CBFE02F01FFF01F095FE254882
:1041400000F058FF234800F0C1FF224801F025F895
:10415000204800F064FF002202211E4800F06CFF9E
:104160001D491C4800F0D4FF00220321194800F02B
:1041700063FF1A49174800F0CBFF002204211548BD
:1041800000F05AFF1649134800F0C2FF0021042036
:1041900002F09CFE01F04AF8124B1860124800F041
:1041A000AAFE18B102F0A0FD104902E002F09CFD49
:1041B0000F4902F09CF80F4800F02CFD18B102F0F6
:1041C00093FD0D4902E002F08FFD0C49BDE8084067
:1041D00002F08DB8C4E3032068810D006E810D00EC
:1041E00071810D0084E303208CE303207F810D00A7
:1041F00099810D00D8E20320B3810D00C8810D0024
:1042000010B504462DED048B3A48B0EE409AF0EE1E
:10421000608AB0EE418A00F059FF03220021354840
:1042200000F00AFF21463348334C00F07EFF0022A5
:104230000221304800F000FF30492E4800F068FFAE
:10424000FDEEC97A2B4817EE901A00F06EFF2C494C
:10425000284800F05DFF00220321264800F0ECFE14
:104260002849244800F054FFFDEEE87A214817EE73
:10427000901A00F05AFF24491E4800F049FF00221E
:1042800004211C4800F0D8FE20491A4800F040FFE5
:10429000FDEEC87A174817EE901A00F046FF1C4949
:1042A000144800F035FF94ED007AF7EE007AB4EE92
:1042B000E77AF1EE10FA19DD002205210D4800F031
:1042C000BBFE14490B4800F023FFD4ED007A0948E7
:1042D000FDEEE77A17EE901A00F027FFBDEC048B95
:1042E0000D490448BDE8104000F012BFBDEC048B3E
:1042F00010BD00BFC4E30320D0E20320DD810D0028
:10430000E4810D00E6810D00F1810D00F3810D00C7
:10431000FB810D0000820D0007820D0000000000EF
:104320002DE9F04F2DED048B002195B0042002F013
:1043300021FE7B4C7B4B7C4E186023687B4F1844DE
:10434000206003F0EFF872A3D3E9002303F08AFAA8
:1043500003F070FB306000F069FF3B68C01A744BDB
:104360009842254640F2CE8000F060FF3860212060
:1043700002F0E9FD04466F486F4FDFF8FC81DFF87B
:10438000FC91DFF8FCA100F059FC6A48BDEEC09A30
:1043900000F082FCDFED697A664880EE270ABB46B2
:1043A000BDEEC08A00F056FDFDEEC08A02F09CFC16
:1043B00019EE103A624A012101F0D2FF02F094FC9A
:1043C00018EE103A5F4A012101F0CAFF02F08CFC9E
:1043D00018EE903A5C4A012101F0C2FFD6ED007A56
:1043E000B8EEC88AFDEEE77AB8EEC99AF8EEE88A28
:1043F00017EE900AB0EE481AF0EE680AB0EE490ADD
:10440000FFF7FEFE87ED009A204688ED008AC9ED91
:10441000008A03F097F840A3D3E9002303F0F8F8EB
:1044200003F008FBCAF800004848494C494F00F027
:1044300091FD07EE900AF8EEE77A4448C4ED007A61
:1044400000F06EFD07EE900A434B444AB8EEE78A4F
:1044500083ED008A2B683BB107EE903AF8EE677A5D
:104460003368C7ED007A136000232B603C4B1B6858
:104470001093106803F078F8CDE90E01386803F066
:1044800073F8CDE90C0118EE100A03F06DF8CDE9D0
:104490000A01206803F068F8CDE90801DAF80000A5
:1044A00003F062F8CDE90601D9F8000003F05CF8EA
:1044B000CDE90401D8F8000003F056F8CDE9020177
:1044C000DBF8000003F050F8264ACDE900014FF474
:1044D0008071254801F006F9244B1968244B1A789D
:1044E000244B1B7813438DF8003012A83C231E4A3E
:1044F00001F0BCFA139828B14368013B43600BB943
:10450000FFF7D9FD15B0BDEC048BBDE8F08F00BFFF
:1045100000000000882A61419402C1D2AF63523F7B
:1045200088E303205CE30320D4E2032084E3032038
:10453000A0BB0D00D8E20320A8E303200000C8427E
:104540000E820D0017820D0024820D008CE30320E3
:10455000B8E30320C0E30320BCE3032080E303208F
:104560005CE1032031820D00D0E1032060E10320F3
:104570001CE3032060E30320ACE30320B0E303204B
:10458000B4E3032038B5154B154D01221A70154BB5
:1045900002221A7000F052FE284602F099FA05F144
:1045A0001C00002401F0BEFC0F4A10496C63284631
:1045B0002C8702F023FD0E4B0E481D605C609C6052
:1045C000DC601C615C611C839C76112100F08EFC18
:1045D0000948BDE8384000F03DB800BF60E3032063
:1045E00020E303201CE30320CCE10320F9400D006D
:1045F00064E303208CE30320D8E203207FB5024666
:1046000008461379956833B13DB90C4904B0BDE84B
:10461000704001F059BE0A4B00E00A4B167B0A4C71
:104620000A49527B0292012E08BF21460191009552
:10463000074A002101F094FE04B070BDD5820D0040
:10464000AE860D00C4820D00CD820D00D1820D001A
:10465000EB820D00FF22027442748274C2747047B0
:104660002DE9F04190F91330013305460F4604D18E
:104670001648BDE8F04101F06BBF072600244FF05B
:10468000010895F91300002180B202F030FC95F981
:10469000110008FA06F1394080B202F028FC95F9C1
:1046A0001300012180B202F022FC95F9120064008F
:1046B00080B2E4B202F034FC08B144F0010416F117
:1046C000FF36DED22046BDE8F08100BF30E7032090
:1046D0007FB590F91030013304460E46154611D1CE
:1046E0000179006801F0D2FB2068036831469B68BD
:1046F00098472068036829469B689847206801F01E
:10470000D0FB2FE090F9133001330FD1164B174A2D
:104710000093029200230122694615488DF8043067
:104720008DF80C208DF80D3001F0A2FE94F91000E8
:10473000002180B202F0DBFB06F07F012046FFF78C
:104740008FFF29462046FFF78BFF94F910000121C7
:1047500080B202F0CCFB94F91330013302D104484B
:1047600001F06DFE04B070BDC0820D0020A10700F5
:1047700030E70320F8B590F83C509DF818609DF89C
:104780001CE09DF8207061F3871562F3020563F366
:10479000C50590F8403080F83C5066F3471380F828
:1047A000403090F838306EF3C503044667F30203D7
:1047B00080F8383006F00702F221FFF789FF94F8FD
:1047C0003820C2F3C20302F007019B0043EA411301
:1047D00043EAD2122046F521FFF77AFF94F83C20F5
:1047E000C2F3C20302F007019B0043EA411343EA0C
:1047F00092122046F421BDE8F840FFF769BF00009F
:1048000030B590F91030013385B004460D4616D10D
:104810000179006801F03AFB2068036829469B682B
:104820009847206801F03DFB01222179206801F0C2
:104830002AFB206803685B699847C5B230E090F9AD
:10484000133001330FD1184B184A00930292002302
:104850000122694616488DF804308DF80C208DF839
:104860000D3001F005FE94F91000002180B202F035
:104870003EFB45F080012046FFF7F2FE0021204676
:10488000FFF7EEFE054694F91000012180B202F018
:104890002EFB94F91330013302D1054801F0CFFD0E
:1048A000284605B030BD00BFC0820D0020A1070022
:1048B00030E7032030B590F91030013385B004465D
:1048C0000D461DD10179006801F0E0FA2068036807
:1048D00029469B689847206801F0E3FA0222217973
:1048E000206801F0D0FA206803685B6998470546A4
:1048F000206803685B69984740EA052085B237E085
:1049000090F9133001330FD11B4B1C4A00930292D4
:104910000023012269461A488DF804308DF80C20D6
:104920008DF80D3001F0A4FD94F91000002180B243
:1049300002F0DDFA45F080012046FFF791FE0021EC
:104940002046FFF78DFE002105462046FFF788FE32
:1049500040EA052085B294F91000012180B202F0EE
:10496000C6FA94F91330013302D1054801F067FD0E
:10497000284605B030BD00BFC0820D0020A1070051
:1049800030E7032008B5FFF795FF40BA80B208BDB5
:1049900030B590F91030013385B004460D4621D171
:1049A0000179006801F072FA2068036829469B6863
:1049B0009847206801F075FA03222179206801F0F8
:1049C00062FA206803685B699847050220680368FB
:1049D0005B69984728430502206803685B6998472C
:1049E00005433BE090F9133001330FD11D4B1E4AB4
:1049F000009302920023012269461C488DF804307E
:104A00008DF80C208DF80D3001F032FD94F9100076
:104A1000002180B202F06BFA45F080012046FFF7DA
:104A20001FFE00212046FFF71BFE00210502204645
:104A3000FFF716FE2843050200212046FFF710FE6F
:104A4000054394F91000012180B202F050FA94F964
:104A50001330013302D1054801F0F1FC284605B0BE
:104A600030BD00BFC0820D0020A1070030E7032049
:104A700038B588210446FFF785FF8A21A0822046A9
:104A8000FFF780FF8C21E0822046FFF77BFF8E211D
:104A900020832046FFF776FF902160832046FFF7B2
:104AA00071FF9221A0832046FFF76CFF9421E083E1
:104AB0002046FFF767FF962120842046FFF762FF1C
:104AC000982160842046FFF75DFF9A21A08420464C
:104AD000FFF758FF9C21E0842046FFF753FF9E21FB
:104AE00020852046FFF74EFFA12160852046FFF775
:104AF00087FEE12184F82C002046FFF743FFE321E5
:104B0000E0852046FFF77CFEE42184F83000204653
:104B1000FFF776FEE52105462046FFF771FE00F01F
:104B20000F0040EA05106086E6212046FFF768FE88
:104B3000E52105462046FFF763FE001140EA051017
:104B4000A086E7212046FFF75BFE84F8360038BDDB
:104B500008B5F321FFF754FE00F0010008BD000086
:104B600030B5044690F91000421C85B003D120688E
:104B700001F07AF921E0012180B202F0B8F994F94C
:104B80001000012180B202F0A1F994F91300431C36
:104B900003D11F4801F04EFC0FE0012180B202F06A
:104BA00095F994F91100012180B202F08FF994F97E
:104BB0001200002180B202F089F9D0212046FFF7CF
:104BC0001FFE6028A06020D12046B622E021FFF71A
:104BD0007FFD4FF4967000F0ADFD2046FFF7B8FF63
:104BE000054608B16420F6E72046FFF741FF05239C
:104BF00000931A460321204602950195FFF7BAFD5E
:104C0000642000F097FD012000E0002005B030BDD9
:104C100030E70320772310B50371044602F0ACF9A6
:104C200020602046FFF79CFF30B976232371204691
:104C3000BDE81040FFF794BF10BD000010B5FA2189
:104C40000446FFF7A5FEB0F5000F1ED0A28A9FED27
:104C5000107AC2EB20235200C2EBE010B4F9162008
:104C60005B435043B4F918201B1353439B1303EBCE
:104C7000E020E06000EB80008030001207EE900A38
:104C8000F8EEE77A87EE870A10BD9FED020A10BDA5
:104C90000000C8420000C07F2DE9F84F0646FFF72C
:104CA000CDFFF7213046FFF773FEB0F5000F074642
:104CB00000F0C180F468B6F91C20E517B4F5FA34A9
:104CC00045F1FF35A4FB048904FB05F309EB430917
:104CD00002FB05F1D31704FB0311A2FB04230B44D1
:104CE000190341EA12511003B6F91E20D31702FB33
:104CF00009FE08FB03EEA2FB082373444FEA122AC5
:104D00004AEA036A1AEB000A728B4FEA232B4BEB39
:104D1000010B1AF100004BF50041A0FB02AB02FBB6
:104D200001BB4FEA6B024FEAEB7352EA030100F05A
:104D30008680B6F924A04FEAEA7B0AFB09F108FB5A
:104D40000B11AAFB0889B6F922A089444FEAEA7B35
:104D50000AFB05F104FB0B11AAFB04450D444FEAC5
:104D6000454B4FEA444A38111AEB080AC0F5801047
:104D70004BEAD43B4BEB090B4FEAE0794FEAC9759C
:104D800045EA5005C407B6F920004FF0000818EBBB
:104D90000A084FEAC00949EB0B0940F63547B4EB66
:104DA000080465EB0905A4FB070107FB051102F0E8
:104DB0009FFFB6F92A204C13450B45EAC14502FB7B
:104DC00004F7D31705FB0377A2FB05233B445443A9
:104DD00005FB0344A2FB05232344540E44EAC314F9
:104DE000B6F9282024184FEA63654D41D317514383
:104DF00000FB0313A2FB00011944C20C42EA41323A
:104E00001219B6F926404FEAE1436B41100AE51743
:104E1000220140EA036019122B0143EA147380183F
:104E2000594102F027FF9FED080A07EE900A27EE8E
:104E3000800ABDE8F88F9FED050ABDE8F88F9FED69
:104E4000040ABDE8F88F00BF0000803B0000C07F6F
:104E50000000000010B50446FFF7F0FEFD212046DB
:104E6000FFF728FDB0F5004F38D0B4F93230E268D2
:104E7000B4F934101B05A2F59632C3EB803302FB64
:104E8000113303F58043D91394F8303094F9360088
:104E90005343DB124243921203F5004353439B12E8
:104EA000B4F92E2003F50013534303F500539B136D
:104EB0004B43DA1394F82C105243D2114A43A3EB1C
:104EC000221323EAE373B3F1C85FA8BF4FF0C853BE
:104ED0001B1300EE103ABAEECB0A10BD9FED010A8B
:104EE00010BD00BF0000C07F00F0A8B90022016023
:104EF00002614261704710B50446008802F023F851
:104F000040F21233A0F10B029A4207D8A060606011
:104F1000E06000F08BF9A061012010BD002010BD01
:104F20008068704710B5044600F080F9A369C01A84
:104F3000074B98420AD92369626993FBF2F3E36055
:104F400000F074F90023A0612361636110BD00BF0C
:104F500020A1070010B5836843600446008801F073
:104F6000F2FF2369A0601844636920610133636123
:104F70002046FFF7D7FFA2686168511AB1F5C87FD4
:104F800010DCB2F52F7F0DDCE368D31A962B0BDC17
:104F9000C82902DDB2F52F7F08D1322BCCBF022009
:104FA000032010BD002010BD012010BD022010BD47
:104FB00000F044B900F042B900F040B90368C9B24A
:104FC0009B68184710B50C4601F0D6FF3C2100F055
:104FD00061FF01F0D1FF8021FFF7F0FF01F0CCFF6E
:104FE000036821469B68984701F0C6FFBDE8104062
:104FF00000F057BF10B5AE210446FFF7E3FF0520D0
:1050000000F098FBAF212046FFF7DCFF052000F001
:1050100091FB2046A621BDE81040FFF7D3BF10B595
:105020000123044603702021FFF7CCFF2046022114
:10503000BDE81040FFF7C6BF38B550391446C9B2B5
:105040000546FFF7BFFFE100284601F00801FFF722
:10505000B9FFC4F3430128461031BDE83840FFF7DB
:10506000B1BF10B50C4601F087FF3C2100F012FFE4
:1050700001F082FF4021FFF7A1FF01F07DFF0368EF
:1050800021469B68984701F077FFBDE8104000F08B
:1050900008BF0000A1F120035F2B0B4B88BF20212C
:1050A00070B56FF4807203EBC10503EBC1030646D4
:1050B0001544A3F1F90415F8011F3046FFF7D1FF9D
:1050C000A542F8D170BD00BF09830D0070B5AE21B7
:1050D0000546FFF777FF00260022F1B22846FFF7CA
:1050E000ABFF102420212846013CFFF7D3FF14F02A
:1050F000FF04F7D10136082EEED12846AF21FFF785
:1051000061FF224621462846BDE87040FFF794BF64
:1051100070B505460E460024E3B20134F15C19B1C6
:105120002846FFF7B7FFF7E770BDF0B585B000235D
:105130000E1E074601930293ADF80C3007DA2D21BD
:10514000FFF7A8FF7642012300240A2105E0FBD1E6
:105150003021FFF79FFF01201DE004AA651C1444C5
:10516000EDB296FBF1F201FB126604F80C6C2C46D2
:105170001646002AF1D12B44DCB25DB104AB2B44BE
:10518000384613F80D1C3031C9B2013DFFF782FFDC
:10519000EDB2F2E7204605B0F0BDA621FFF712BF41
:1051A00000F04CB800F04AB800F048B808B5024B1F
:1051B0001B689B68019308BD4802030008B5024BB9
:1051C0001B681B69019308BD4802030008B5024B28
:1051D0001B685B69019308BD4802030008B5024BD8
:1051E0001B681B6B019308BD4802030008B5024B06
:1051F0001B689B6B019308BD4802030008B5024B76
:105200001B681B6C019308BD4802030008B5024BE4
:105210001B685B6C019308BD4802030008B5024B94
:105220001B685B68019308BD1802030008B5024BB8
:105230001B685B69019308BD1802030008B5024BA7
:105240001B681B68019308BD2C02030008B5024BC4
:105250001B685B68019308BD2C02030008B5024B74
:105260001B689B68019308BD2C02030008B5024B24
:105270001B68DB68019308BD2C02030008B5024BD4
:105280001B681B69019308BD2C02030008B5024B83
:105290001B685B69019308BD2C02030008B5024B33
:1052A0001B681B6B019308BD2C02030008B5024B61
:1052B0001B68DB6C019308BD2C02030008B5024B90
:1052C0001B68DB68019308BD2802030008B5024B88
:1052D0001B685B69019308BD2802030008B5024BF7
:1052E0001B689B69019308BD2802030008B5024BA7
:1052F0001B68DB69019308BD2802030008B5024B57
:105300001B681B6A019308BD2802030008B5024B05
:105310001B685B6A019308BD2802030008B5024BB5
:105320001B689B6A019308BD2802030008B5024B65
:105330001B68DB6A019308BD2802030008B5024B15
:105340001B681B6B019308BD2802030008B5024BC4
:105350001B685B6B019308BD2802030008B5024B74
:105360001B681B6C019308BD2802030008B5024BA3
:105370001B685B69019308BD6C02030008B5024B12
:105380001B685B69019308BD6402030008B5024B0A
:105390001B681B6A019308BD6402030008B5024B39
:1053A0001B689B6A019308BD6402030008B5024BA9
:1053B0001B689B68019308BD6802030008B5024B97
:1053C0001B68DB68019308BD6802030008B5024B47
:1053D0001B689B69019308BD3802030008B5024BA6
:1053E0001B68DB69019308BD3802030008B5024B56
:1053F0001B681B6A019308BD3802030008B5024B05
:105400001B689B6A019308BD3802030008B5024B74
:105410001B681B6B019308BD3802030008B5024BE3
:105420001B689B6B019308BD3802030008B5024B53
:105430001B681B68019308BD3002030008B5024BCE
:105440001B685B69019308BD3002030008B5024B7D
:105450001B68DB69019308BD3002030008B5024BED
:105460001B681B6A019308BD3002030008B5024B9C
:105470001B685B6A019308BD3002030008B5024B4C
:105480001B68DB6B019308BD3002030008B5024BBB
:105490001B681B68019308BD3C02030008B5024B62
:1054A0001B68DB68019308BD3C02030008B5024B92
:1054B0001B681B69019308BD3C02030008B5024B41
:1054C0001B685B69019308BD3C02030008B5024BF1
:1054D0001B689B69019308BD3C02030008B5024BA1
:1054E0001B68DB69019308BD3C02030008B5024B51
:1054F0001B681B6A019308BD3C02030008B5024B00
:105500001B689B6A019308BD3C02030008B5024B6F
:105510001B681B68019308BD4C02030008B5024BD1
:105520001B685B68019308BD4C02030008B5024B81
:105530001B681B69019308BD4C02030008B5024BB0
:105540001B685B69019308BD4C02030008B5024B60
:105550001B689B69019308BD4C02030008B5024B10
:105560001B68DB69019308BD4C02030008B5024BC0
:105570001B681B6A019308BD4C02030008B5024B6F
:105580001B681B6D019308BD6002030008B5024B48
:105590001B685B68019308BD2002030008B5024B3D
:1055A0001B685B69019308BD2002030008B5024B2C
:1055B0001B68DB6C019308BD2002030008B5024B99
:1055C0001B685B6D019308BD2002030008B5034B07
:1055D0001B68D3F88830019308BD00002002030047
:1055E00008B5034B1B68D3F89430019308BD000045
:1055F0002002030008B5024B1B685B69019308BDDC
:105600004402030008B5024B1B681B6A019308BDE6
:105610004402030008B5024B1B68DB6B019308BD15
:105620004402030008B5024B1B685B68019308BD88
:105630004002030008B5024B1B689B68019308BD3C
:105640004002030008B5024B1B68DB68019308BDEC
:105650004002030008B5024B1B681B69019308BD9B
:105660004002030008B5024B1B685B69019308BD4B
:105670004002030008B5024B1B689B69019308BDFB
:105680004002030008B5024B1B68DB69019308BDAB
:105690004002030008B5024B1B681B6A019308BD5A
:1056A0004002030008B5024B1B681B6B019308BD49
:1056B0004002030008B5024B1B685B6B019308BDF9
:1056C0004002030008B5024B1B681B68019308BD2C
:1056D0001C02030008B5024B1B685B68019308BD00
:1056E0001C02030008B5024B1B68DB69019308BD6F
:1056F0001C02030008B5024B1B685B6A019308BDDE
:105700001C02030008B5024B1B68DB6A019308BD4D
:105710001C02030008B5024B1B681B6B019308BDFC
:105720001C02030008B5024B1B68DB6B019308BD2C
:105730001C0203000021FFF731BF10B58368044647
:105740000BB901F062FCC3689847A3681BB1032240
:1057500021462046984720461021BDE8104001F020
:1057600052BC10B5036804469B689847A368013B88
:10577000A3602BB923682046DB68BDE810401847BA
:1057800010BD0B68036013B15A6801325A6070474C
:1057900010B50446006828B14368013B43600BB96B
:1057A000FFF7DFFF204610BD024800230360FFF72C
:1057B0002DBD00BFC8E3032070470020704710B51F
:1057C0001021044601F01FFC204610BD08B508B1A9
:1057D000FFF7F5FF08BD10B58368044613B1032237
:1057E00001469847204610BD0022026010B54FF6D2
:1057F0009C728280B1F9044084808A8002680C68BF
:1058000004600A6010BD10B504460068FFF762FF2F
:10581000204610BD38B5C468F4B12378022B03D1FB
:1058200004F10C00FFF7EFFF656835B12846FFF77C
:10583000D2FF1021284601F0E6FBA56835B12846C5
:10584000FFF7C9FF1021284601F0DDFB2046142197
:10585000BDE8384001F0D7BB38BD13B5044691E828
:10586000050000234B600B602060626001A801937B
:105870000093FFF78DFF204602B010BDF7B50C4630
:1058800002AD54F8043B45F8083D06460F4601A812
:105890002146FFF776FF29463046FFF7DEFF01A8D5
:1058A000FFF776FF2046FFF773FF3846082101F027
:1058B000AAFB304603B0F0BD13B50B46044603C83F
:1058C0008DE8030093E8030084E803009DE80300EB
:1058D00083E8030002B010BD38B50023044603601E
:1058E00010200D46FEF7D9FB28B1012343608360E9
:1058F000024B0360C5602060204638BD14860D0051
:10590000826810B50AB901F080FBC368BDE8104099
:10591000184708B5006800F11001FFF7F1FF08BD56
:10592000826810B50AB901F070FBC368BDE8104089
:10593000184708B5006800F11001FFF7F1FF08BD36
:1059400038B5002383608B6804460D462BB10222D4
:105950009847EB68E360AB68A360204638BD000061
:10596000F0B589B004686846FFF73EFF00238DF864
:1059700008304FF00202D4E84F3F002B03D1C4E8B7
:10598000412F0029F7D102D08DF8083063E014F1DF
:105990000C0503D069462846FFF726FFBFF35F8F4B
:1059A00001236370002004F10803BFF35F8F53E805
:1059B000006F43E80002002AF9D1BFF35F8F002E89
:1059C00049D0FFF7F3FD20B129463046FFF798FF95
:1059D0003AE0314602A8FFF7B3FFE068B4F910508F
:1059E00008B102F093FB06901020ADF81C50FEF7B2
:1059F00054FB0546E8B1002787601820FEF74DFBF1
:105A0000044688B10146876002A8FFF755FF049B52
:105A1000A268A360059B049206A9E268E36004F112
:105A200010000592FFF7E0FE0D4BEB600D4B2C6074
:105A3000AB6006A8FFF7E7FE02A8FFF7CCFE002246
:105A400029460948FFF7BAFD3046FFF7C4FE10218A
:105A5000304601F0D8FA6846FFF7D5FE09B0F0BD30
:105A600013590D00895B0D003B570D002DE9F04FD8
:105A70008BB006460F46904699469DF850A0FFF71A
:105A8000B9FD07AD834630BB4FF62E73059005A9CF
:105A90002846ADF81830FFF7A7FE1420FEF7FDFAF0
:105AA000044658B10223037001234370C0F804B0C8
:105AB000C0F808B029460C30FFF796FE3046214664
:105AC00040F8044BFFF708FF2846FFF79CFE05A8A7
:105AD000FFF799FE52E000240C2314206C60AC60A8
:105AE0000793FEF7DAFA014618B104704470446077
:105AF000846004A80391FFF7EFFE224B089308206F
:105B0000FEF7CBFA044628B1039B40F8043B04A9F6
:105B1000FFF737FE00955FFA8AF34A46414638465A
:105B20000994FFF76FFD20B9039B5B7803F0FF0238
:105B300083B1039B059304A906A8FFF722FE05A9DC
:105B40003046FFF78AFE06A8FFF722FE04A8FFF7FB
:105B50001FFE13E04FF69C7305A903A80592ADF84C
:105B60001830FFF7FDFE05A8FFF74DFE05A80999BF
:105B7000FFF784FE06A8FFF70BFEDAE730460BB00E
:105B8000BDE8F08FF95C0D00022AF8B5044606D096
:105B9000032A17D0012A22D10B6803601FE01820C6
:105BA0000E68FEF77AFA054650B13146FFF7C8FE97
:105BB0003069B6F9147008B102F0A8FA2861AF8212
:105BC00025600CE0046854B104F11000FFF71BFEDF
:105BD0002046FFF700FE1821204601F014FA0020AD
:105BE000F8BD38B5002383608B6804460D462BB1A1
:105BF00002229847EB68E360AB68A360204638BD9B
:105C0000022A70B5044606D0032A11D0012A18D101
:105C10000B68036015E014200E68FEF73EFA054697
:105C200020B13146FFF7DDFF337C2B74256008E09F
:105C3000046834B12046FFF7CEFD1421204601F060
:105C4000E2F9002070BD0000F0B5002387B00C46DB
:105C5000BFF35F8F50E8006F40E80032002AF9D1AF
:105C6000BFF35F8F002E3FD01846FFF79FFC07461B
:105C700020B121463046FFF753FE2EE0314601A801
:105C8000FFF7AFFF23788DF814301020FEF705FAE8
:105C90000546D0B187601420FEF7FFF9044678B1BD
:105CA0008760014601A8FFF707FE039BA268A36077
:105CB000049B0392E268E3609DF81430049223741D
:105CC0000A4BEB600A4B2C60AB6001A8FFF783FD29
:105CD000002229460748FFF771FC3046FFF77BFD9D
:105CE0001021304601F08FF907B0F0BD33590D0097
:105CF000015C0D003B570D0030B585B004460D46E4
:105D000068461146FFF7BAFD7CB124B228460DB1B2
:105D100002F0FCF9029002A96846ADF80C40FFF7CA
:105D20001FFE02A8FFF76FFD1DE000988DF80840E8
:105D30004FF00102D0E84F3FA34203D1C0E8412F0A
:105D40000029F7D102D08DF808300CE010F10C01D9
:105D50004FF0010318BF0373BFF35F8F043000F8E7
:105D6000033CFFF771FF01A8FFF712FD05B030BD3E
:105D7000002211464068FFF78DBC002211464068A2
:105D8000FFF798BC00224068FFF78CBC002281F02E
:105D900001014068FFF776BC00231A4619464068A7
:105DA000FFF768BC00231A4619464068FFF75ABC43
:105DB000002211464068FFF74DBC002211464068A2
:105DC000FFF738BC002202214068FFF73BBC0023EC
:105DD0001A464068FFF726BC024B03225A60024A6B
:105DE0001A607047CCE3032030860D007047F8B589
:105DF000064615460C468F18BC4206D0336814F888
:105E0000011B9B6830469847F6E72846F8BD0022FC
:105E1000007CFFF773BA0021007CFFF777BA0021FE
:105E2000007CFFF77BBA0021007CFFF77FBA0021DE
:105E3000007CFFF783BA10B51421044601F0E3F8A3
:105E4000204610BD10B504464FF47A730846A3608F
:105E50000021044B207461602360FFF77FFA204625
:105E600010BD00BF64860D0000231A461946007C51
:105E7000FFF724BA13B50024007C0094FFF726FA3C
:105E8000C0B202B010BD0123FFF7F4BF0022007CB6
:105E9000FFF724BAC9B2FFF7F9BF0022007CFFF771
:105EA00025BA0121FFF7F9BF0021007CFFF74EBAA8
:105EB000704710B51821044601F0A5F8204610BD22
:105EC000F0B5037D062B8DB00E4600F104074FF0B0
:105ED000000402D000F1080518E00CAD394605F8C1
:105EE000304D2F232A460A20FFF748FA284602F0B1
:105EF00028F933680246DB682946304698470FE0A8
:105F000024B12E21304600F0E3F9044415F8011DB8
:105F10000A22304600F022FABD420444F0D1204665
:105F20000DB0F0BD10B5054B0446112240F8043BFE
:105F3000002102F0BAF8204610BD00BF8C860D008B
:105F40000346074A10B543F8042B01F1100251F83B
:105F5000044B43F8044B9142F9D10A781A7010BDF2
:105F60008C860D00037D042B01D1406808E0062BD0
:105F70000AD1436853B1836843B1C36833B1006940
:105F8000003018BF01207047002070471846704746
:105F900010B59DF8084044EA032343EA024242EA6E
:105FA000016104234160037510BD37B50D788B780E
:105FB0004A78C97800912946FFF7EAFF03B030BD5F
:105FC000014B024A1A607047D4E303204D870D004D
:105FD000002211464068FFF75DBB00221146406871
:105FE000FFF768BB00224068FFF75CBB002281F02E
:105FF00001014068FFF746BB00231A4601214068B3
:10600000FFF738BB00231A4619464068FFF72ABB42
:10601000002211464068FFF71DBB00221146406870
:10602000FFF708BB002202214068FFF70BBB0023EB
:106030001A464068FFF7F6BA38B5054688B10468D5
:106040004CB1A3681BB1032221462046984710217A
:10605000204600F0D8FF28461421BDE8384000F063
:10606000D2BF38BD10B103685B681847704710B5E0
:1060700003680446BBB15868FFF798F878B92368FD
:106080005A7C12B95868FFF799F823685868FFF7E7
:106090009DF820680023236028B1FFF7CDFF20681A
:1060A00008B1FFF7C9FF204610BD000038B50C4B02
:1060B00003600446D0F8CC0108B1FDF7F2FFD4F834
:1060C000C45135B12846FFF7D2FF0421284600F01D
:1060D0009AFFA06808B1FFF7C5FF204638BD00BF92
:1060E00080870D0038B50E4C0E4B2360002502232F
:1060F00004F5E4706360A560C4F8C451C4F8C851E5
:10610000FFF784F8084BC4F8CC5184F8D0512360D1
:106110002046064A0649BDE8384000F06FBF00BF80
:10612000D8E30320B4870D0080870D00CCE1032065
:10613000AD600D0000231A464068FFF773BA0022D5
:1061400002214068FFF77EBA002211464068FFF73F
:1061500071BA002211464068FFF77CBA00231A4644
:1061600019464068FFF77EBA00231A461946406870
:10617000FFF780BA002281F001014068FFF782BA80
:1061800000224068FFF78EBA002211464068FFF7F0
:1061900091BA002211464068FFF77CBA2DE9F0431E
:1061A000002495B016460D460746FFF7BBFE214674
:1061B00020220CA8009401F078FF40230C93214684
:1061C0006B460CAA3046FFF7F9F80446002844D184
:1061D000024601216868FFF73DFA02218046224607
:1061E0006868FFF737FA009E81462146002E34D0BA
:1061F000002932D17368022B02D00A2B09D02AE081
:10620000B8F1000F27D0716938460431FFF7CDFE91
:1062100020E0B9F1000F1ED07469112201A801F02D
:1062200044FF06238DF8143001AD04F1080318343F
:10623000186859682A4603C20833A3421546F7D1A5
:1062400001A906A807ADFFF77BFE0FCD3C1D0FC4CB
:106250002B6823700121F669C8E70098FFF7A6F8BC
:10626000384615B0BDE8F083024B034A1A6000229D
:106270005A607047ACE50320B4870D00F8B50646B8
:106280000D468F180024BD420CD0336815F8011B51
:106290009B6830469847002801DB0444F3E7002C54
:1062A00008BF04462046F8BD70B505460C460846B2
:1062B00049B101F046FF2B68024621462846DB68BB
:1062C000BDE87040184770BD08B5FFF7EDFF08BD89
:1062D00003689B68184738B50D210546FFF7F8FF9E
:1062E0000A2104462846FFF7F3FF204438BD38B59D
:1062F0000546FFF7D9FF04462846FFF7ECFF204488
:1063000038BD30B58BB00B4600218DF82410012A22
:1063100098BF0A220DF12304B3FBF2F505FB1233FB
:1063200003F0FF03092B94BF30333733DBB2214630
:1063300004F801392B46002DEED1FFF7B5FF0BB065
:1063400030BD10B42AB903685DF8044B9B68C9B22C
:106350001847D2B25DF8044BFFF7D3BFFFF7F1BF88
:106360000CB42DE9F04387B000AF07F138040546BF
:1063700054F8049B3C600E4623464A461421381DBF
:10638000FFF7B8F9132805D8391D2846FFF78CFF09
:10639000044613E000F1080323F00703E846ADEBE1
:1063A000030D411C23464A4668463C60FFF7A2F9AC
:1063B00069462846FFF778FF0446C5461EB12846C1
:1063C000FFF789FF044420461C37BD46BDE8F04373
:1063D00002B0704710B50446FFF7FDF9204610BD26
:1063E0000348044A04490023836000F007BE00BF4D
:1063F000B4E50320CCE10320D5630D00704710B550
:106400001021044600F0FFFD204610BD70B5084B7A
:106410000360044600250E4640F80C5FFEF7DEFEE2
:1064200030462671FFF712F8A560204670BD00BF08
:10643000E8870D004FF6FF710079FEF7F7BFC068DF
:10644000FEF7DCBE400830B51860002418688842AA
:10645000E5B206D90134082C02D040081860F5E7EF
:106460000725024B5B5D137030BD00BFF0870D0048
:106470002DE9F04380468FB0C0680F46FEF7B6FEA8
:1064800098F804401422002109A801F00EFE0B2305
:106490002046002209A9ADF82430FEF7E7FF9DF859
:1064A0002D404CB19DF82C502DB90C9E9DF8349088
:1064B0009DF8354003E00024A146264601253B799E
:1064C0000DB1002B40D19D420BD1BA68B24208D128
:1064D0008DF820908DF82140BDF82010BA899142A6
:1064E00032D023BB8DF80F300DF10F0204ABB96829
:1064F0000A98FFF7A7FF3B7905B113BBAB4209D060
:1065000000213B7B01917C7B9DF80F2098F80400D3
:10651000009413E0BB68B342F2D38DF820908DF85D
:106520002140BDF82020BB899A42E9D109E000232F
:1065300098F80400019300931A460121FEF79EFF8C
:1065400002E0049BB342DBD100200FB0BDE8F08332
:1065500008B50079FEF772FFC0B208BD0079FEF7FA
:106560007DBF0000044B00204FF6FF72187058806A
:106570009A80FFF70BB800BFC4E5032037B502AC23
:10658000036804F8011DDD6B01224FF0FF33214643
:10659000A84703B030BD10B40368DC6B4FF0FF3385
:1065A000A4465DF8044B604737B502AC036804F8B5
:1065B000011DDD6B214613460122A84703B030BD03
:1065C000704738B543691A68002A044605DAB3F8FB
:1065D0008620B3F884309A4201D001250BE003688D
:1065E0001B699847002814BF0125002503D12368A3
:1065F0002046DB6A9847284638BD43691868C0437F
:10660000C00F704770470020704710B51421044632
:1066100000F0F9FC204610BDFDF741BD2DE9F04327
:106620009846036893B0DB6A0C46064617469847BF
:1066300012AB002543F8485D2A4629462046FEF75E
:10664000BDFE00283ADB009B002B39D05B69002B94
:1066500036D006A8FFF766FC009B5C696378022BC6
:1066600001D1211D13E00A2B14D11122294601A8C2
:1066700001F01BFDA36833BBE36823BB4FF6FF703B
:106680002569FEF783FE85421DD104F1140106A899
:10669000FFF78BFC06A8FFF765FC88B1336807ADF0
:1066A000D3F82090184B0C930FCD0DAC0FC42B6872
:1066B00023703A4643460CA93046C84704461CE0BE
:1066C0004FF0FF3419E004F1080301AD18341868E5
:1066D00059682A4603C20833A3421546F7D1062358
:1066E00001A90CA80DAD8DF81430FFF729FC0FCDD2
:1066F00007AC0FC42B682370CCE70098FEF756FE5A
:10670000204613B0BDE8F0838C860D007FB5164699
:1067100000224260029203925A1C04460D4608D0A1
:106720004FF47A72B3FBF2F1029102FB11314A434A
:10673000039260690823009341F205026B4440F61E
:10674000FF710068FEF742FE002808DB6069002345
:10675000324629460068FEF759FE002804DAFEF7A3
:10676000E1FF03686360002004B070BD10B50368EA
:1067700004469B689847A368013BA3602BB9236834
:106780002046DB68BDE81040184710BD70B50446D0
:106790004D69054B44F8043B8C3506460FCD0FC4BC
:1067A0002B682370304670BD8C860D0010B5436990
:1067B000B3F88620B3F884309A42044605D0626963
:1067C000B2F884301344187910BD03681B699847E8
:1067D0000028F4D14FF0FF3010BD10B54369B3F875
:1067E0008620B3F884309A42044608D06269B2F831
:1067F0008430591C1344A2F88410187910BD036822
:106800001B6998470028F1D14FF0FF3010BDF8B553
:1068100043691746B3F88620B3F884309A42054698
:106820000E4606D103681B69984710B94FF0FF3434
:1068300014E06969B1F88430B1F88640E41ABC42CA
:1068400028BF3C46194422460431304601F022FC60
:106850006A69B2F884302344A2F884302046F8BD37
:1068600042690023A2F884304269A2F8863070475A
:106870002DE9F041984603680D468AB0DB6A06466A
:10688000174698472B7D7469042B0CBF02200A2001
:1068900006220121FEF7C2FD206073691C68002CEE
:1068A0005BDB3046FFF7DCFFB8F1000F17D00023A9
:1068B00003A95FFA88F00393ADF81030FEF756FD98
:1068C000002849DB70690623009341F20B0203ABF9
:1068D00040F6FF710068FEF779FD00283CDB1C24C0
:1068E0002246002103A801F0E0FB2B7D8DF80C402F
:1068F000042B0CD1022338468DF80D30FEF74EFDE7
:10690000ADF80E006868FEF741FD049013E00A231D
:1069100038468DF80D30FEF741FD05ACADF80E00A0
:106920002B1D05F1140718685968224603C2083365
:10693000BB421446F7D173691C2203A91868FEF7FD
:1069400055FD002808DB2C1D0FCC76698C360FC650
:1069500023683370012404E0044633683046DB6A60
:10696000984720460AB0BDE8F08110B54369044657
:106970001868002801DBFEF731FD63694FF0FF3234
:106980001A606069112200218C3001F08EFB2046D4
:10699000BDE81040FFF764BF30B54269B2F88630F9
:1069A0008BB004461BB1B2F884209A4240D0636990
:1069B000186800283FDBB3F886507F2D3BD8191D9F
:1069C000C5F1800208232944FEF718FD00280CDDDC
:1069D0006369B3F886200AB9A3F884206269B2F823
:1069E00086301844A2F8860025E0FEF79BFE036877
:1069F0000B2B20D0FEF796FE03680B2B1BD0202319
:106A0000002502930395FEF78DFE036801930E4B5C
:106A1000009302AA2B460D493220FEF7AFFD6369B1
:106A20001868FEF7DBFC63694FF0FF321A6002E082
:106A3000FFF716FFBBE76269B2F88630B2F8840050
:106A4000181A0BB030BD00BF67880D0060880D00BC
:106A500010B5002304460160A0F88430A0F8863009
:106A60008830FFF75FFA204610BD00004FF47A72BD
:106A700070B500238260144A436002604361836101
:106A80000446A0200E46FDF708FB054610B131462E
:106A9000FFF7DEFF1420FDF700FB034628B10122BB
:106AA00042608260094A02600561A0696561A36174
:106AB00028B14368013B43600BB9FFF757FE2046FE
:106AC000FFF7CEFE204670BD1C880D0000880D002B
:106AD00010B54FF0FF310446FFF7C8FF204610BD48
:106AE00010B504460068002801DBFEF777FC20465D
:106AF00010BD10B504692046FFF7F2FF24B120460F
:106B0000BDE81040FDF7CBBA10BD0000024B1A687B
:106B1000024B1A60704700BF64E10320CCE50320FC
:106B200070474174704708B5007CFEF7E7FC20EA27
:106B3000E07008BD08B5007CFEF7B8FC20EAE07004
:106B400008BD08B5007CFEF7C1FC30EA200028BF74
:106B50004FF0FF3008BD08B5007CFEF7AFFC30EA0F
:106B6000200028BF4FF0FF3008BD007CFEF7B6BC08
:106B700010B51421044600F046FA204610BD70B549
:106B8000457C04460E4625B9007CFEF7B7FC00287C
:106B900005DD3146207CBDE87040FEF77FBC28460D
:106BA00070BD000010B50446084611460022626020
:106BB0004FF47A72A260054A226001222074627446
:106BC0001A46FEF763FC204610BD00BFA8880D00E2
:106BD000007CFEF78BBC000038B50C4D296811F025
:106BE000010411D12846FDF75EFA68B1084A094B45
:106BF00009482146FFF7D6FF2846FDF759FA074A0C
:106C00000749054800F0FAF9034838BD68E6032053
:106C10006CE60320E4E50320D0E50320CCE103206B
:106C2000216B0D0041747047704708B50021007C4E
:106C3000FEF78CFC30EA200028BF4FF0FF3008BD83
:106C400008B50121007CFEF781FC30EA200028BF56
:106C50004FF0FF3008BD08B5007CFEF76FFC20EA5E
:106C6000E07008BD08B5007CFEF760FC20EAE0702B
:106C700008BD007CFEF77ABC10B51421044600F074
:106C8000C2F9204610BD38B50446007C0D46FEF71B
:106C900055FC002801DC607C28B12946207CFEF7E9
:106CA0005DFC20EAE07038BD10B504460023636047
:106CB0004FF47A73A360054B2360012308462174C7
:106CC00063741146FEF722FC204610BDD8880D00E3
:106CD0000022007CFEF722BC10B5142204460021DD
:106CE00001F0E3F9204610BD30B50E4D87B001A884
:106CF000FFF7F2FF296811F0010410D12846FDF7D3
:106D0000D2F960B101AA21460748FFF7CDFF284616
:106D1000FDF7CEF9054A0649034800F06FF902482D
:106D200007B030BDF0E60320F4E60320CCE10320F9
:106D3000296C0D00002211464068FEF78BBC002232
:106D400011464068FEF7A6BC002211464068FEF7D7
:106D5000B1BC00224068FEF7A5BC002281F0010111
:106D60004068FEF78FBC00231A4619464068FEF7BC
:106D700081BC00231A4619464068FEF773BC002206
:106D800011464068FEF756BC002202214068FEF71B
:106D900059BC00231A464068FEF744BC024B04224B
:106DA0005A60024A1A60704708E7032008890D00FC
:106DB00008B50C4B33B1FFF797FF03681B69984781
:106DC000002809DC084B63B1FFF706FF03681B6965
:106DD0009847002803DC08BDAFF30080F2E7AFF36B
:106DE000008008BD000000000000000008B5FFF7AB
:106DF000DFFFFEF71BFA014B186008BD14E7032004
:106E000007B5002300931A466FF07701FEF7E8FB01
:106E100003B05DF804FB000007B543880A2B08D0D7
:106E2000502B09D1094B1B683BB103B05DF804EB53
:106E30001847FFF7E5FF06E0002300931A466FF0BE
:106E40007701FEF7CDFB03B05DF804FB10E70320EC
:106E500010B5FEF7E3F9044601F030F9074B13B122
:106E60002046AFF3008000210448FEF7D3FB002149
:106E70000348BDE81040FEF7A9BB00BF00000000BA
:106E8000196E0D0010B504460F48FFF767FB28B1D7
:106E9000A4F10B03022B01D8002010BD00F06CF808
:106EA000FFF702F808B1012CF6D9FFF795FEFFF7BE
:106EB0008FFE18B1A4F10903012BEDD9232C8CBF4F
:106EC0000020012010BD00BF30E70320232838B583
:106ED00004460D460AD8FF2908D0FFF7D3FF28B192
:106EE00029462046BDE83840FEF7B8B938BD38B568
:106EF00004460D46FEF7BAF9FF2810D0062804D83C
:106F00004D2323FA00F0C30709D42046FFF7BAFF48
:106F100028B129462046BDE83840FEF7AFB938BD54
:106F200010B50446FEF7A2F90438C0B2012808D90A
:106F30002046FFF7A7FF20B12046BDE81040FEF72E
:106F4000A5B9002010BD0D2810B504469CBF0E3415
:106F5000A4B22046FFF796FF50B103212046FEF76A
:106F600075F9032804D12046BDE81040FEF796B914
:106F7000002010BDFEF79AB938B50B4D296811F005
:106F800001040FD12846FDF78EF858B12146074875
:106F9000FEF758FF2846FDF78BF8054A05490348D8
:106FA00000F02CF8014838BD18E703201CE7032047
:106FB000CCE10320ED5D0D0070B50C4C0C4E0D4D79
:106FC00000212046FFF722FA20460B4C3246294684
:106FD00000F014F801212046FFF718FA324629463E
:106FE0002046BDE8704000F009B800BF30E703203C
:106FF000CCE10320FD630D0040E703200B46014672
:10700000184601F039B8FDF74AB808B5FEF77AFB23
:10701000244B1A68D0075CBF01221A60224B1A6801
:10702000D1075CBF01221A60204B1A68D2075CBFEF
:1070300001221A601E4B1A68D0075CBF01221A6039
:107040001C4B1A68D1075CBF01221A601A4B1A68E0
:10705000D2075CBF01221A60184B1A68D0075CBFC8
:1070600001221A60164B1A68D1075CBF01221A6010
:10707000144B1A68D2075CBF01221A60124B1A68BF
:10708000D0075CBF01221A60104B1A68D1075CBFA1
:1070900001221A600E4B1A68D2075CBF01221A60E7
:1070A000704700BF7CE7032078E7032074E70320E4
:1070B00070E703206CE7032068E7032064E7032000
:1070C00060E703205CE7032058E7032054E7032030
:1070D00050E70320184B1A68D1075CBF01221A60E1
:1070E000164B1A68D2075CBF01221A60144B1A684B
:1070F000D0075CBF01221A60124B1A68D1075CBF2F
:1071000001221A60104B1A68D2075CBF01221A6074
:107110000E4B1A68D0075CBF01221A600C4B1A682C
:10712000D1075CBF01221A600A4B1A68D2075CBF04
:1071300001221A60704700BF9CE7032098E70320F4
:1071400094E7032090E703208CE7032088E70320DF
:1071500084E7032080E70320184B1A68D1075CBF3F
:1071600001221A60164B1A68D2075CBF01221A600E
:10717000144B1A68D0075CBF01221A60124B1A68C0
:10718000D1075CBF01221A60104B1A68D2075CBF9E
:1071900001221A600E4B1A68D0075CBF01221A60E8
:1071A0000C4B1A68D1075CBF01221A600A4B1A689F
:1071B000D2075CBF01221A60704700BFBCE7032002
:1071C000B8E70320B4E70320B0E70320ACE70320CF
:1071D000A8E70320A4E70320A0E70320244B1A68B4
:1071E000D0075CBF01221A60224B1A68D1075CBF2E
:1071F00001221A60204B1A68D2075CBF01221A6074
:107200001E4B1A68D0075CBF01221A601C4B1A681B
:10721000D1075CBF01221A601A4B1A68D2075CBF03
:1072200001221A60184B1A68D0075CBF01221A604D
:10723000164B1A68D1075CBF01221A60144B1A68FA
:10724000D2075CBF01221A60124B1A68D0075CBFDC
:1072500001221A60104B1A68D1075CBF01221A6024
:107260000E4B1A68D2075CBF01221A60704700BF3C
:10727000ECE70320E8E70320E4E70320E0E703204E
:10728000DCE70320D8E70320D4E70320D0E703207E
:10729000CCE70320C8E70320C4E70320C0E70320AE
:1072A00081F0004102E000BF83F0004330B54FEAB7
:1072B00041044FEA430594EA050F08BF90EA020F24
:1072C0001FBF54EA000C55EA020C7FEA645C7FEAB7
:1072D000655C00F0E2804FEA5454D4EB5555B8BFDA
:1072E0006D420CDD2C4480EA020281EA030382EA4B
:1072F000000083EA010180EA020281EA0303362DDD
:1073000088BF30BD11F0004F4FEA01314FF4801CAF
:107310004CEA113102D0404261EB410113F0004FC1
:107320004FEA03334CEA133302D0524263EB430378
:1073300094EA050F00F0A780A4F10104D5F1200E16
:107340000DDB02FA0EFC22FA05F2801841F1000171
:1073500003FA0EF2801843FA05F359410EE0A5F145
:1073600020050EF1200E012A03FA0EFC28BF4CF076
:10737000020C43FA05F3C01851EBE37101F000452C
:1073800007D54FF0000EDCF1000C7EEB00006EEB39
:107390000101B1F5801F1BD3B1F5001F0CD34908C3
:1073A0005FEA30004FEA3C0C04F101044FEA44521A
:1073B00012F5800F80F09A80BCF1004F08BF5FEAA1
:1073C000500C50F1000041EB045141EA050130BD81
:1073D0005FEA4C0C404141EB010111F4801FA4F124
:1073E0000104E9D191F0000F04BF01460020B1FA79
:1073F00081F308BF2033A3F10B03B3F120020CDAB1
:107400000C3208DD02F1140CC2F10C0201FA0CF08E
:1074100021FA02F10CE002F11402D8BFC2F1200CF3
:1074200001FA02F120FA0CFCDCBF41EA0C019040A9
:10743000E41AA2BF01EB0451294330BD6FEA0404F2
:107440001F3C1CDA0C340EDC04F11404C4F12002DD
:1074500020FA04F001FA02F340EA030021FA04F3EF
:1074600045EA030130BDC4F10C04C4F1200220FA46
:1074700002F001FA04F340EA0300294630BD21FA84
:1074800004F0294630BD94F0000F83F4801306BF4A
:1074900081F480110134013D4EE77FEA645C18BF3E
:1074A0007FEA655C29D094EA050F08BF90EA020FD5
:1074B00005D054EA000C04BF1946104630BD91EACD
:1074C000030F1EBF0021002030BD5FEA545C05D1D0
:1074D0004000494128BF41F0004130BD14F580040F
:1074E0003CBF01F5801130BD01F0004545F0FE4183
:1074F00041F470014FF0000030BD7FEA645C1ABFB8
:10750000194610467FEA655C1CBF0B46024650EAEE
:10751000013406BF52EA033591EA030F41F400211A
:1075200030BD00BF90F0000F04BF0021704730B5A0
:107530004FF4806404F132044FF000054FF0000175
:1075400050E700BF90F0000F04BF0021704730B536
:107550004FF4806404F1320410F0004548BF40420B
:107560004FF000013EE700BF42004FEAE2014FEA60
:1075700031014FEA02701FBF12F07F4393F07F4F3B
:1075800081F06051704792F0000F14BF93F07F4F6D
:10759000704730B54FF4607401F0004521F00041B0
:1075A00020E700BF50EA010208BF704730B54FF036
:1075B00000050AE050EA010208BF704730B511F03B
:1075C000004502D5404261EB41014FF4806404F173
:1075D00032045FEA915C3FF4DCAE4FF003025FEAF5
:1075E000DC0C18BF03325FEADC0C18BF033202EB7D
:1075F000DC02C2F1200300FA03FC20FA02F001FAD7
:1076000003FE40EA0E0021FA02F11444C1E600BF75
:1076100070B54FF0FF0C4CF4E06C1CEA11541DBF28
:107620001CEA135594EA0C0F95EA0C0F00F0DEF8F3
:107630002C4481EA030621EA4C5123EA4C5350EAD8
:10764000013518BF52EA033541F4801143F4801329
:1076500038D0A0FB02CE4FF00005E1FB02E506F0BA
:107660000042E0FB03E54FF00006E1FB03569CF00F
:10767000000F18BF4EF0010EA4F1FF04B6F5007F15
:1076800064F5407404D25FEA4E0E6D4146EB060687
:1076900042EAC62141EA55514FEAC52040EA5E5010
:1076A0004FEACE2EB4F1FD0C88BFBCF5E06F1ED8BA
:1076B000BEF1004F08BF5FEA500E50F1000041EBF1
:1076C000045170BD06F0004646EA010140EA02009E
:1076D00081EA0301B4EB5C04C2BFD4EB0C0541EAC0
:1076E000045170BD41F480114FF0000E013C00F3D5
:1076F000AB8014F1360FDEBF002001F0004170BDF9
:10770000C4F10004203C35DA0C341BDC04F1140411
:10771000C4F1200500FA05F320FA04F001FA05F29D
:1077200040EA020001F0004221F0004110EBD3706A
:1077300021FA04F642EB06015EEA430E08BF20EA96
:10774000D37070BDC4F10C04C4F1200500FA04F339
:1077500020FA05F001FA04F240EA020001F00041CB
:1077600010EBD37041F100015EEA430E08BF20EA3E
:10777000D37070BDC4F1200500FA05F24EEA020E86
:1077800020FA04F301FA05F243EA020321FA04F0B5
:1077900001F0004121FA04F220EA020000EBD3706C
:1077A0005EEA430E08BF20EAD37070BD94F0000F6C
:1077B0000FD101F00046400041EB010111F4801FA0
:1077C00008BF013CF7D041EA060195F0000F18BF51
:1077D000704703F00046520043EB030313F4801F8D
:1077E00008BF013DF7D043EA0603704794EA0C0F47
:1077F0000CEA135518BF95EA0C0F0CD050EA41065D
:1078000018BF52EA4306D1D181EA030101F00041D9
:107810004FF0000070BD50EA410606BF1046194601
:1078200052EA430619D094EA0C0F02D150EA01360D
:1078300013D195EA0C0F05D152EA03361CBF10464E
:1078400019460AD181EA030101F0004141F0FE41ED
:1078500041F470014FF0000070BD41F0FE4141F471
:10786000780170BD70B54FF0FF0C4CF4E06C1CEA71
:1078700011541DBF1CEA135594EA0C0F95EA0C0F26
:1078800000F0A7F8A4EB050481EA030E52EA0335E1
:107890004FEA013100F088804FEA03334FF0805502
:1078A00045EA131343EA12634FEA022245EA11152F
:1078B00045EA10654FEA00260EF000419D4208BFE0
:1078C000964244F1FD0404F5407402D25B084FEA8D
:1078D0003202B61A65EB03055B084FEA32024FF439
:1078E00080104FF4002CB6EB020E75EB030E22BF96
:1078F000B61A754640EA0C005B084FEA3202B6EB56
:10790000020E75EB030E22BFB61A754640EA5C0004
:107910005B084FEA3202B6EB020E75EB030E22BF94
:10792000B61A754640EA9C005B084FEA3202B6EB95
:10793000020E75EB030E22BFB61A754640EADC0054
:1079400055EA060E18D04FEA051545EA16754FEAB6
:1079500006164FEAC30343EA52734FEAC2025FEAD4
:107960001C1CC0D111F4801F0BD141EA00014FF063
:1079700000004FF0004CB6E711F4801F04BF014334
:107980000020B4F1FD0C88BFBCF5E06F3FF6AFAE50
:10799000B5EB030C04BFB6EB020C5FEA500C50F1E0
:1079A000000041EB045170BD0EF0004E4EEA113163
:1079B00014EB5C04C2BFD4EB0C0541EA045170BD6A
:1079C00041F480114FF0000E013C90E645EA060EAE
:1079D0008DE60CEA135594EA0C0F08BF95EA0C0FDC
:1079E0003FF43BAF94EA0C0F0AD150EA01347FF424
:1079F00034AF95EA0C0F7FF425AF104619462CE7FB
:107A000095EA0C0F06D152EA03353FF4FDAE10465D
:107A1000194622E750EA410618BF52EA43067FF4AE
:107A2000C5AE50EA41047FF40DAF52EA43057FF43E
:107A3000EBAE12E74FEA4102B2F1E04324BFB3F5E7
:107A4000001CDCF1FE5C0DD901F0004C4FEAC002D5
:107A50004CEA5070B2F1004F40EB830008BF20F0B9
:107A60000100704711F0804F21D113F13872BCBF73
:107A700001F00040704741F480114FEA5252C2F1C8
:107A80001802C2F1200C10FA0CF320FA02F018BF11
:107A900040F001004FEAC1234FEAD32303FA0CFC64
:107AA00040EA0C0023FA02F34FEA4303CCE77FEAF3
:107AB000625307D150EA01331EBF4FF0FE4040F43D
:107AC0004000704701F0004040F0FE4040F40000EC
:107AD000704700BF80F0004002E000BF81F000412D
:107AE00042001FBF5FEA410392EA030F7FEA226C64
:107AF0007FEA236C6AD04FEA1262D2EB1363C1BFF4
:107B0000D218414048404140B8BF5B42192B88BF62
:107B1000704710F0004F40F4000020F07F4018BF85
:107B2000404211F0004F41F4000121F07F4118BFA5
:107B3000494292EA030F3FD0A2F1010241FA03FC4D
:107B400010EB0C00C3F1200301FA03F100F0004335
:107B500002D5494260EB4000B0F5000F13D3B0F1FD
:107B6000807F06D340084FEA310102F10102FE2A6C
:107B700051D2B1F1004F40EBC25008BF20F00100DC
:107B800040EA03007047490040EB000010F4000F8A
:107B9000A2F10102EDD1B0FA80FCACF1080CB2EB1D
:107BA0000C0200FA0CF0AABF00EBC250524218437C
:107BB000BCBFD0401843704792F0000F81F4000121
:107BC00006BF80F400000132013BB5E74FEA4103F4
:107BD0007FEA226C18BF7FEA236C21D092EA030F60
:107BE00004D092F0000F08BF0846704790EA010FDA
:107BF0001CBF0020704712F07F4F04D1400028BF07
:107C000040F00040704712F100723CBF00F50000E8
:107C1000704700F0004343F0FE4040F4000070471E
:107C20007FEA226216BF08467FEA236301464202CA
:107C300006BF5FEA412390EA010F40F480007047DD
:107C40004FF0000304E000BF10F0004348BF404283
:107C50005FEA000C08BF704743F0964301464FF0BF
:107C600000001CE050EA010208BF70474FF000031B
:107C70000AE000BF50EA010208BF704711F000435C
:107C800002D5404261EB41015FEA010C02BF84462C
:107C90000146002043F0B64308BFA3F18053A3F58B
:107CA0000003BCFA8CF2083AA3EBC25310DB01FAD2
:107CB00002FC634400FA02FCC2F12002BCF1004F56
:107CC00020FA02F243EB020008BF20F001007047E7
:107CD00002F1200201FA02FCC2F1200250EA4C003B
:107CE00021FA02F243EB020008BF20EADC70704781
:107CF0007BB972B90029BEBF00204FF0004106E0F9
:107D000008BF00281CBF6FF000414FF0FF3000F0AB
:107D1000B1B9ADF1080C6DE904CE002909DB002BE7
:107D20001ADB00F035F8DDF804E0DDE9022304B0E9
:107D30007047404261EB4101002B1BDB00F028F84B
:107D4000DDF804E0DDE9022304B0404261EB4101CB
:107D5000524263EB43037047524263EB430300F02C
:107D600017F8DDF804E0DDE9022304B0404261EBDE
:107D700041017047524263EB430300F009F8DDF81C
:107D800004E0DDE9022304B0524263EB4303704791
:107D90002DE9F0478C460E460446089D002B50D135
:107DA0008A4217466CD9B2FA82FEBEF1000F0BD0A0
:107DB000CEF1200420FA04F401FA0EF644EA060C8F
:107DC00002FA0EF700FA0EF44FEA1749220CBCFB38
:107DD000F9F01FFA87F809FB10C642EA064600FBD5
:107DE00008F3B34209D9F61900F1FF3280F022817D
:107DF000B34240F21F8102383E44F61AA2B2B6FBEB
:107E0000F9F309FB136642EA064403FB08F8A045B0
:107E100009D9E41903F1FF3280F00A81A04540F24C
:107E20000781023B3C44C8EB040443EA00400021C4
:107E3000002D62D024FA0EF400232C606B60BDE8A4
:107E4000F0878B4207D9002D55D0002185E84100ED
:107E50000846BDE8F087B3FA83F1002940F090802E
:107E6000B34202D3824200F2F880841A66EB030622
:107E70000120B446002D40D085E81010BDE8F08701
:107E800012B90127B7FBF2F7B7FA87FEBEF1000F70
:107E900035D1F31B4FEA17481FFA87FC0121B3FBCA
:107EA000F8F0220C08FB103642EA06460CFB00F301
:107EB000B34207D9F61900F1FF3202D2B34200F201
:107EC000CE801046F61AA2B2B6FBF8F308FB136692
:107ED00042EA06440CFB03FCA44507D9E41903F16C
:107EE000FF3202D2A44500F2B5801346CCEB040465
:107EF00043EA00409CE729462846BDE8F087CEF1DA
:107F0000200106FA0EF307FA0EF720FA01F94FEAFC
:107F10001748CE4049EA0309B6FBF8FA4FEA19447C
:107F200008FB1A661FFA87FC44EA06430AFB0CF2B8
:107F30009A4200FA0EF40AD9DB190AF1FF3180F0F7
:107F400087809A4240F28480AAF1020A3B449B1A3D
:107F50001FFA89F9B3FBF8F108FB113349EA03432F
:107F600001FB0CF69E4207D9DB1901F1FF326BD2FF
:107F70009E4269D902393B449B1B41EA0A418EE784
:107F8000C1F1200E22FA0EF48B40234320FA0EF7A3
:107F900006FA01F44FEA134C26FA0EF63C43B6FB00
:107FA000FCF9270C0CFB19661FFA83F847EA064612
:107FB00009FB08F7B74202FA01F200FA01FA08D900
:107FC000F61809F1FF3041D2B7423FD9A9F10209B1
:107FD0001E44F61BA0B2B6FBFCF40CFB146640EA90
:107FE000064704FB08F8B84507D9FF1804F1FF302D
:107FF00028D2B84526D9023C1F4444EA0940C8EBC0
:108000000707A0FB02894F4544464E4614D329D0AA
:1080100065B3BAEB040367EB060707FA0EFECB4025
:10802000CF404EEA030385E888000021BDE8F087D1
:108030001346F8E61046E0E6B8EB020469EB0306E7
:108040000138E5E70446D8E7114695E78146C0E7E1
:108050008A467CE7023B3C4448E708460AE7023888
:108060003E442FE7C245E7D33E46D1E72946BDE867
:10807000F08700BF704700BF10B5054C13462CB108
:108080000A4601460220AFF3008010BD204610BD15
:108090000000000010B5431E0A44914204D011F8BC
:1080A000014B03F8014FF8E710BD02440346934229
:1080B00002D003F8011BFAE77047000038B5124BF5
:1080C0001C68A36B0546D3B91820FDF7FBFA43F2F1
:1080D0000E33A06303804AF6CD33438041F234234C
:1080E00083804EF26D63C3804DF6EC6303810523FC
:1080F00043810B23838101220023C0E90423A36B66
:1081000000221D615A6138BDC8E10320024B0146BF
:10811000186800F003B800BFC8E1032070B5064638
:1081200008460C4600F00DF8451C29463046FDF780
:10813000F1FA064618B12A462146FFF7ABFF304652
:1081400070BD034613F8012B002AFBD1181A013821
:108150007047000021400D005D400D0089400D007A
:108160008D400D0000000000526561647900746F5D
:1081700000526F636B20616E6420526F6C6C004123
:108180006972205175616C6974792053656E736FE3
:10819000722072656164792E0041697220517561A7
:1081A0006C6974792053656E736F72204552524F1B
:1081B000522100424D453238302053656E736F7244
:1081C0002072656164792E00424D4532383020536B
:1081D000656E736F72204552524F52210054656D87
:1081E000703A2000430048756D69646974793A20DB
:1081F00000250050726573733A20002068506100BA
:10820000447573743A2000207063732F4C005465DA
:108210006D703A2025640050726573737572653A0B
:108220002025640048756D69646974793A20256475
:10823000007B2231223A22252E3266222C20223245
:10824000223A22252E3166222C202233223A222560
:108250002E3266222C202234223A22252E32662209
:108260002C202235223A22252E3366222C2022363B
:10827000223A22252E3266222C202237223A22252B
:108280002E3166222C202238223A22252E346622D4
:108290002C20226B223A222573227D00454C454832
:1082A000334B38415132524E5A39414B00656E764C
:1082B0002D76616C730000000000000000000000DB
:1082C000FD450D0064656661756C7420004D534278
:1082D000004C5342003C53504953657474696E67B7
:1082E000732064656661756C743E003C535049535D
:1082F000657474696E6773202573256C752025730A
:10830000204D4F444525643E000000000000000061
:108310000000005F000000000000000700070000F0
:108320000000147F147F14000000242A7F2A12000A
:1083300000002313086462000000364955225000F3
:10834000000000050300000000001C2241000000A6
:10835000000041221C0000000000082A1C2A08001E
:10836000000008083E0808000000A06000000000AF
:108370000000080808080800000060600000000015
:10838000000020100804020000003E5149453E0054
:10839000000000427F400000000062514949460051
:1083A000000022414949360000001814127F1000D5
:1083B000000027454545390000003C4A4949300046
:1083C00000000171090503000000364949493600E3
:1083D0000000064949291E00000000363600000052
:1083E000000000AC6C0000000000081422410000F6
:1083F000000014141414140000004122140800009A
:1084000000000201510906000000324979413E0096
:1084100000007E0909097E0000007F4949493600B5
:1084200000003E414141220000007F4141221C00EA
:1084300000007F494949410000007F090909010006
:1084400000003E414151720000007F0808087F0093
:108450000000417F4100000000002040413F01003A
:1084600000007F081422410000007F40404040008F
:1084700000007F020C027F0000007F0408107F00D4
:1084800000003E4141413E0000007F09090906000D
:1084900000003E4151215E0000007F09192946007D
:1084A0000000264949493200000001017F01010016
:1084B00000003F4040403F0000001F2040201F00C0
:1084C00000003F4038403F00000063140814630080
:1084D0000000030478040300000061514945430093
:1084E00000007F414100000000000204081020004D
:1084F000000041417F00000000000402010204006E
:1085000000008080808080000000010204000000E4
:10851000000020545454780000007F484444380040
:1085200000003844442800000000384444487F00DC
:1085300000003854545418000000087E090200005E
:10854000000018A4A4A47C0000007F0804047800A4
:108550000000007D00000000000080847D0000001D
:1085600000007F10284400000000417F4000000010
:1085700000007C041804780000007C08047C0000E3
:1085800000003844443800000000FC242418000097
:108590000000182424FC00000000007C08040000F7
:1085A00000004854542400000000047F44000000F0
:1085B00000003C40407C000000001C2040201C00CB
:1085C00000003C4030403C0000004428102844009B
:1085D00000001CA0A07C000000004464544C440037
:1085E00000000836410000000000007F000000008D
:1085F00000004136080000000000020101020100F5
:10860000000002050502000000000000000000005C
:1086100000000000B9570D00BF570D0015580D00A0
:10862000CD570D00BB570D000000000000000000FA
:10863000CF5D0D00C55D0D00BB5D0D00B15D0D0092
:10864000A55D0D00995D0D008D5D0D00855D0D0032
:108650007B5D0D00715D0D009D610D00000000004F
:1086600000000000ED5D0D00375E0D000F5E0D0097
:10867000EF5D0D00175E0D001F5E0D00275E0D0003
:108680002F5E0D000000000000000000C15E0D0024
:10869000B15E0D00B35E0D0066006C6E00666E008C
:1086A000636F64650064657461696C000D0A002580
:1086B0003031307520005D20002C200028293A2020
:1086C00000205B00636F6465203D20002569006425
:1086D000657461696C73203D2000626175640053AC
:1086E000657269616C0053657269616C31007479FF
:1086F000706500706172616D00636D640069640093
:10870000686E64007374726D0066696C74006C76D8
:108710006C0061646448616E646C65720072656DC2
:108720006F766548616E646C657200656E756D4844
:10873000616E646C657273004A534F4E5374726578
:10874000616D4C6F6748616E646C6572006170703A
:10875000006E6F6E6500747261636500696E666FAE
:10876000007761726E006572726F720070616E697F
:108770006300616C6C00000000000000000000005D
:108780002F600D0025600D001B600D0011600D00B5
:1087900005600D00F95F0D00ED5F0D00E55F0D0058
:1087A000DB5F0D00D15F0D009D610D00000000003A
:1087B0000000000035610D003F610D0049610D00B2
:1087C00053610D005D610D0069610D0075610D0063
:1087D00081610D0089610D0093610D009D610D00A7
:1087E0000000000000000000FD630D00FF630D00AD
:1087F0000008101820283038000000000000000099
:1088000005660D000B660D00F36A0D0019660D007C
:1088100007660D000000000000000000D9400D00B8
:1088200005410D007D650D0097650D0099690D00EE
:10883000DB670D00AD670D00C1650D0071680D00AF
:108840001D660D000F680D006B690D00C3650D00FE
:10885000FB650D00A9650D000D670D008D670D000E
:10886000776972696E670072656376206572726FF0
:1088700072203D202564005A00252B3033643A25B0
:108880003032750025592D256D2D25645425483A23
:10889000254D3A2553257A0061736374696D65002F
:1088A0000000000000000000216B0D00716B0D0046
:1088B0007F6B0D007D620D00356B0D00576B0D0059
:1088C000436B0D006B6B0D00236B0D00276B0D00D0
:1088D0000000000000000000296C0D00796C0D0004
:1088E000876C0D007D620D00656C0D002B6C0D001A
:1088F000416C0D00736C0D00576C0D00256C0D0064
:108900000000000000000000936D0D00896D0D0057
:108910007F6D0D00356D0D00736D0D00676D0D00E1
:108920005B6D0D00536D0D00496D0D003F6D0D0029
:108930009D610D000000000000000000000000002C
:108940000000000000000000000000000000000027
:108950000000000000000000000000000000000017
:108960000000000000000000000000000000000007
:1089700000000000000000000000000000000000F7
:1089800000000000000000000000000000000000E7
:108990000000000085450D00E94E0D00B14F0D00AF
:1089A000B54F0D00B94F0D00A1510D00A5510D009F
:1089B000A9510D00A9570D00D95D0D00C15F0D0033
:1089C000E5600D0069620D00E1630D0065650D0055
:1089D0000D6B0D009D6D0D00B96F0D0011700D0038
:1089E000D5700D0059710D00DD710D000000000003
:0889F000A0F3FF7F010000006D
:1089F8009C820D00AD820D0098880D0000000000DB
:108A080034890D0054890D0074890D0000000000A0
:108A1800000000000000000000000000E4810D00DC
:108A2800000000000000000000000000000000003E
:108A3800000000000000000000000000000000002E
:108A4800000000000000000000000000000000001E
:108A580000000000000000000000000068E10320A2
:108A6800FFFFFFFF00000102030405060708090ACB
:108A78000B0C0D0E0F101112131415161718191AC6
:088A88001B1C1D1E1F2028000D
:048A900078563412CE
:04000003D0004020C9
:00000001FF
